:100000000C945C000C9479000C9479000C947900A9
:100010000C9479000C9479000C9479000C9479007C
:100020000C9479000C9479000C9479000C9479006C
:100030000C9479000C9479000C9479000C9479005C
:100040000C941D010C9479000C9479000C947900A7
:100050000C9479000C9479000C9479000C9479003C
:100060000C9479000C947900000000080002010053
:100070000003040700000000000000000000000072
:10008000250028002B0000000000240027002A0083
:10009000040404040404040402020202020203032E
:1000A0000303030301020408102040800102040836
:1000B000102001020408102011241FBECFEFD8E049
:1000C000DEBFCDBF11E0A0E0B1E0E2E5F5E002C0A7
:1000D00005900D92A030B107D9F721E0A0E0B1E082
:1000E00001C01D92A930B207E1F70E9467010C948C
:1000F000A7020C94000090E0FC01EC55FF4F249106
:1001000080579F4FFC018491882399F090E0880FDD
:10011000991FFC01EA57FF4FA591B491FC01E458E7
:10012000FF4F859194918FB7F894EC91E22BEC936B
:100130008FBF089590E0FC01E859FF4F2491FC0126
:10014000EC55FF4F3491FC01E057FF4FE491EE2353
:10015000C9F0222339F0233001F1A8F4213019F13C
:10016000223029F1F0E0EE0FFF1FE458FF4FA59178
:10017000B4918FB7F894EC91611126C030953E236D
:100180003C938FBF08952730A9F02830C9F0243060
:1001900049F7809180008F7D03C0809180008F7728
:1001A00080938000DFCF84B58F7784BDDBCF84B5AB
:1001B0008F7DFBCF8091B0008F778093B000D2CF3E
:1001C0008091B0008F7DF9CF3E2BDACF8E508064C6
:1001D00080937C0080917A00806480937A00809183
:1001E0007A0086FDFCCF8091780090917900089587
:1001F0003FB7F8948091050190910601A091070105
:10020000B091080126B5A89B05C02F3F19F00196B3
:10021000A11DB11D3FBFBA2FA92F982F8827BC0160
:10022000CD01620F711D811D911D42E0660F771F88
:10023000881F991F4A95D1F708951F920F920FB604
:100240000F9211242F933F938F939F93AF93BF935C
:100250008091010190910201A0910301B0910401EC
:100260003091000123E0230F2D3758F50196A11D91
:10027000B11D209300018093010190930201A0938E
:100280000301B09304018091050190910601A091B2
:100290000701B09108010196A11DB11D80930501D0
:1002A00090930601A0930701B0930801BF91AF910D
:1002B0009F918F913F912F910F900FBE0F901F90A4
:1002C000189526E8230F0296A11DB11DD2CF789470
:1002D00084B5826084BD84B5816084BD85B582604B
:1002E00085BD85B5816085BD80916E0081608093FC
:1002F0006E00109281008091810082608093810065
:100300008091810081608093810080918000816074
:10031000809380008091B10084608093B1008091CF
:10032000B00081608093B00080917A0084608093F7
:100330007A0080917A00826080937A0080917A00BE
:10034000816080937A0080917A00806880937A003F
:100350001092C10089E00E947B008AE00E947B002D
:100360008BE00E947B0061E08BE00E949A002DEC04
:10037000422E23E0522E612C712C30E0232E30E0EF
:10038000332E8EE00E94E600EC018FE00E94E60032
:100390008C01C333D1051CF4C3970CF44CC060E04E
:1003A0008BE00E949A0061E00C171D070CF060E0E2
:1003B0008AE00E949A0061E089E00E949A0083E24C
:1003C00090E00197F1F760E089E00E949A009E01B9
:1003D000C017D1070CF49801032E000C440B550BE9
:1003E0002253310941095109A8EFB8EF0E94710267
:1003F000A30192010E9444022053384F4F4F5F4F98
:10040000283C3105ACF0213D87E0380714F020EDA1
:1004100037E0220F331F220F331FC90105970197C1
:10042000F1F72114310409F4ACCF0E940000A9CFE8
:1004300028EC30E0EECF61E08BE00E949A000E9451
:10044000F8004B015C018AE0C82ED12CE12CF12C84
:100450000E94F800681979098A099B09683E73406F
:1004600081059105A8F321E0C21AD108E108F1083D
:1004700088EE880E83E0981EA11CB11CC114D10423
:10048000E104F10429F7CDCF052E97FB1EF400946B
:100490000E945B0257FD07D00E94760207FC03D042
:1004A0004EF40C945B0250954095309521953F4F4A
:1004B0004F4F5F4F089590958095709561957F4F50
:1004C0008F4F9F4F08950E949802A59F900DB49F53
:1004D000900DA49F800D911D11240895B7FF0C94D9
:1004E00063020E946302821B930B0895A1E21A2EFD
:1004F000AA1BBB1BFD010DC0AA1FBB1FEE1FFF1FC8
:10050000A217B307E407F50720F0A21BB30BE40B17
:10051000F50B661F771F881F991F1A9469F760955E
:100520007095809590959B01AC01BD01CF01089518
:10053000A29FB001B39FC001A39F700D811D112424
:10054000911DB29F700D811D1124911D0895F89485
:02055000FFCFDB
:00000001FF
